:400000000010002011000000711400007114000010B501F04DFAC04670B51E4C23688025ED022B432360302002F030FB1A4A1B4B1A6011221A4B1A600F321A4B1A601032AE
:40004000194B1A600F3A194B1A601023184A1360184A136082221206174B1A60256080221206164B1A60164A164B1A60164A174B1A60174A174B1A60174A184B1A60184999
:40008000092002F0A9FA092002F080FA0022154B1A6070BD00010B400600008004010B40080202400C0202401C02024020020240280202402C02024008010B4000000240D0
:4000C0000500008040000240200000808000024022000080040002402F000080440002409D2800000C020B4010B572B60122364B1A7000240FE035486200131959000B00BF
:40010000411889881A5AC31858880004104301F08BF90134E4B2012CEDD92C4801000C313C3001F067F92A4A2A4B1A602A4A2B4B1A6099222A4B1A6099231B04294A1360FB
:40014000294A1360294A1360294A1360294A2A4B1A601B22294B1A600332294B1A60193A284B1A600621284B19602849087806230343DBB20B702649264B1960264B1A601E
:400180008A32FF32254B1A600F3AFF3A244B1A60F423244A136080218900234A1160234A13600322224B1A60224A234B1A600223224A13602249234A1160234A1360FFF79A
:4001C0002BFF01F047F910BD1C700F40846200000808000004000140EEEE00000C0001401000014000500F4010500F4020500F4030500F40D0000F0020010540A001054040
:40020000E00105402000004000800F4000700F40490224000800044000010440080104401801044000020440080204401802044000030440A40D000008030440000404407F
:40024000B10D0000080404401804044010B5064C2378002B07D1054B002B02D0044800E000BF0123237010BD5001002000000000EC5B0000084B10B5002B03D00749084831
:4002800000E000BF07480368002B00D110BD064B002BFBD09847F9E70000000054010020EC5B0000C00000200000000070B5FA20C00002F0C9F991490F2002F07DF9904A7C
:4002C000904B536090490B6A1B021B0AC020000603430B62002494600723136062B601F0ADF98A4D280001F02FF9002001F046F901F03CFA280001F0BFF9002001F0D6F9A3
:40030000834801F069FA012000F0BCF90025814B1C80814B1C80814A814B1A6001F062FC70220321702000F069F970224321702000F064F908220321712000F05FF9794B2D
:400340001D701A78D2B20121702000F057F9764C25702278D2B20121712000F04FF9227810231343DBB223702278D2B20121712000F044F900F0FCFA002804D0202000F035
:40038000C7FA6A4B18802821694800F0BFFC01F053FB00F0D9FC01F005FB01F013FB654801F0A4FF012001F0E7FB634B1B88002B20D101F0EDFBC043C0B201F0DDFBFA22C1
:4003C00052005D4B1A8001F0E3FB002806D0554A117808230B43DBB2137004E0514A137808218B4313704F4B1A78D2B20121702000F004F900F062FF504B18701B78002BE6
:4004000003D0012001F0CCFB02E0002001F0C8FB4A4A117801230B40137006D0414A117804230B43DBB2137004E03E4A137804218B431370414A117802230B40137006D092
:40044000384A117802230B43DBB2137004E0354A137802218B431370384A117804230B40137006D02F4A117801230B43DBB2137004E02C4A137801218B43137001F0F2FAFD
:40048000002804D001F0E8FAC0B200F051FE0023204A1380204A138000F058F8274B5880274B1B78002B00D17FE7244B5B889BB25A22FF32934201D8204B5A801F4B5B8822
:4004C0009BB29A22FF32934202D901321B4B5A801A4B588880B203F03BFB1A4903F030F9194902F04FFEFD21890503F015F8FA21890502F0D1FC0A4B586056E7F906000082
:4005000010E000E07FBB000000ED00E0FFFF000075070000FC01002004020020EC51803FC400002095020020140300208E020020AC0D000065080000CC0000206C0100200A
:40054000F40100200080AC430000824210B5174A1488174B98886300D318988003F0B0FA144902F04FFC002805D064000F4B1C190023A3800AE00134A4B20C4B1C80402C48
:4005800004D900221A8001320B4B1A710023002006E05A0005498A18928880180133DBB23F2BF6D9800980B210BDC04670010020A402002000E0FF44F001002070B504002D
:4005C0000E00150001F048FD64220021200001F03BFC002809D00BE0305D192101F0C2FC002805D10134E4B200E00024AC42F3D3192001F08BFC002070BDC04600B583B0E4
:4006000001AB19705A7002221900FFF7D7FF03B000BDC04670B504000E00150001F01CFD64220121200001F00FFC002811D013E06B1E9C4205DA31190A22002001F0B6FCA7
:4006400004E031190A22012001F0B0FC0134E4B200E00024AC42EBD3192001F057FC002070BDC04630B583B0050001AC217002222100FFF7A3FF012221002800FFF7CAFFB4
:4006800003B030BD70B5051E0ED1184955234B7155338B71164C0722200004F069FE2100FE2001F061FE1FE0104C0722FE21C901200004F05DFE6379552B05D10B4B9B794D
:4006C000AA2B01D1022D0FD1084D07220949280004F04EFE064C07222900200004F048FE2100FE2001F040FE70BDC0469802002018030020F05B00001A4B1B88002B02D028
:40070000013B184A1380184B1B889BB2002B04D0154A1388013B9BB21380144B1B68002B03D0124A1368013B136000230CE05A000F49525A92B2002A04D05800425A013ADC
:4007400092B242520133DBB2022BF0D9054B5B889BB2002B04D0034A5388013B9BB253807047C046CC00002098030020A40300209C030020F8B5384B1D68384C291C2068F7
:4007800002F000FD061CA08880B203F0E1F9071CA08880B203F0DCF9291C02F0F3FC011C381C02F0CDFF011C301C02F075FB2060011C03F04BF9002803D0E08803F0C8F9B1
:4007C0002060264C206802F031FB80B2E080244B984202D102225242E280204CE08800F0D5FE1D4B1D68291CA06802F0CBFC061CA08980B203F0ACF9071CA08980B203F089
:40080000A7F9291C02F0BEFC011C381C02F098FF011C301C02F040FBA060011C03F016F9002804D00D4CE08903F092F9A0600B4CA06802F0FBFA80B2E081094B984202D162
:4008400002225242E281054BD88900F037FF012000F004FFF8BDC046C4000020F8010020FFFF000070B5154B1B68DB0720D5144B1D68002001F0B0F880B2124C20800120EF
:4008800001F0AAF880B26080022001F0A5F880B2A080032001F0A0F880B2E080042001F09BF880B220810122074B1A70074B1D60074A136801210B40136070BD1C021A40B9
:4008C0003C021A40A40200209F02002030021A4010021A4070B505000C0001F0BDFB642200216B2001F0B0FA00280CD11921280001F038FBFF202040192101F033FB200AA8
:40090000192101F02FFB192001F000FB70BDC04610B582B0040000236A46D3716A46937101F09AFB642200216B2001F08DFA002803D11921200001F015FB642201216B208A
:4009400001F078FC00280AD119226B46D91D01F02DFB19226B46991D012001F027FB6B46987900026B4607331B78184302B010BD10B5642001F068FE902149001220FFF760
:40098000A9FF0A2001F060FE21491520FFF7A2FF0A2001F059FE0F211420FFF79BFF0A2001F052FE32213E20FFF794FF0A2001F04BFE9C2149003D20FFF78CFF0A2001F072
:4009C00043FE3C213F20FFF785FF0A2001F03CFE00213020FFF77EFF0A2001F035FE00213120FFF777FF0A2001F02EFE00213220FFF770FF0A2001F027FEA021090235209B
:400A0000FFF768FF0A2001F01FFE012010BDC0463408000010B504001220FFF779FF002C03D00123984381B202E00123184381B21220FFF74FFF10BD10B52620FFF768FF18
:400A4000000A80B2800180B210BDC04610B52420FFF75EFF030406D54004400C40235B42584300B201E0800100B210BD10B52320FFF74EFF000A80B2800180B210BDC046AB
:400A800070B504002020FFF743FF05002080FFF7D3FF6080FFF7DAFFA080FFF7E7FFE0802620FFF735FFFF23184080012081AAB2D20B2273C023DB002B40591E8B41DBB24A
:400AC000A372002B02D1002A02D102E0002300E00123E372F4231D406B1E9D416573200070BDC04670B505000C0001F0B5FA64220021642001F0A8F9002807D1192128008D
:400B000001F030FA1921200001F02CFA192001F0FDF970BD10B582B0040000226B46DA7101F09AFA64220021642001F08DF9002803D11921200001F015FA6422012164201A
:400B400001F078FB002805D119226B46D91D013001F02CFA192001F0D9F96B46D87902B010BDC04610B582B0040000236A46D3716A46937101F070FA64220021642001F029
:400B800063F9002803D11921200001F0EBF964220121642001F04EFB00280AD119226B46D91D01F003FA19226B46991D012001F0FDF9192001F0AAF96B46D87900026B4649
:400BC00006331B78184302B010BDC04610B504F017F9084A084B02F0F9FF02F03FF980B2010AC4B20220FFF77DFF21000320FFF779FF10BDC3F5285C8FC2D53F70B5040037
:400C00002C22002104F0BDFB0020FFF783FF2023E0541E331840431E98412823E0540220FFF7A0FF208002F093FF04F02BF92A4A2A4B03F0E1FA04F079F9051C606008200F
:400C4000FFF790FF208102F083FF04F01BF9244A244B03F0D1FA04F069F9E0600E20FFF781FF208200B202F02BFF04F00BF91E4A1E4B03F0C1FA04F059F960611420FFF7E5
:400C800071FF208302F064FF04F0FCF80022184B03F0B2FAC022D205164B03F027FD04F045F9E0611449281C02F06CFA134902F033FC6062002102F091F8002801D000232C
:400CC00063620E49606A02F09DF8002801D00B4B6362200070BDC046C3F5285C8FC2D53F0AD7A3703D0AF73F8D976E1283C0E23F0000D03F6612714000C05A450000C84265
:400D000010B50020FFF706FF10BDC04610B504003C235B421943C9B20120FFF7E3FEFFF7EFFF6008FFF752FF012010BD10B5040004F052FB0100200000F0AAFE00F0B4FE86
:400D40000028FBD110BDC04610B507480023037004304022002104F014FB0448FFF7E6FF0348FFF7E3FF10BD08020020CC5C0000F45C000010B50F48FFF7D8FF0E48FFF75A
:400D8000D5FF0E48FFF7D2FF0D48FFF7CFFF0D48FFF7CCFF0C48FFF7C9FF0C48FFF7C6FF0B48FFF7C3FF0B48FFF7C0FF0A48FFF7BDFF10BD0C5D0000185D0000345D00009F
:400DC0005C5D00007C5D0000985D0000C45D0000DC5D0000F85D0000205E000010B59EB001AC2000FFF74CFE2448FFF79FFF2288234905A804F0CEFA05A8FFF797FF62887D
:400E00000421635E1F4905A804F0C4FA05A8FFF78DFFE2881C4905A804F0BCFA05A8FFF785FF2289194905A804F0B4FA05A8FFF77DFF1748FFF77AFF237B002B01D0154849
:400E400000E01548FFF772FF1448FFF76FFF01AB9B7A002B01D00F4800E00F48FFF766FF0F48FFF763FF01AB5B7B002B01D0094800E00C48FFF75AFF1EB010BD585E000016
:400E80007C5E0000945E0000B45E0000CC5E0000E45E0000405E0000485E0000F45E0000045F0000505E000000B5A7B002A8FFF7A5FE3248FFF73AFF202302AAD25C3049B3
:400EC0000DA804F067FA0DA8FFF730FF059B0193181C01F0ABFF82B202AB1B8929490DA804F058FA0DA8FFF721FF079B0193181C02F0C4FD02B202AB1B8A23490DA804F016
:400F000049FA0DA8FFF712FF099B0193181C02F0B5FD02B202AB1B8B1C490DA804F03AFA0DA8FFF703FF039B0193181C01F07EFF82B202AB1B8816490DA804F02BFA0DA872
:400F4000FFF7F4FE0B9B0193181C01F06FFF82B210490DA804F01EFA0DA8FFF7E7FE0E48FFF7E4FE282302AAD35C002B01D00B4800E00B48FFF7DAFE27B000BD145F000033
:400F8000345F00004C5F0000705F0000945F0000B85F0000DC5F0000F45F0000405E0000505E0000F0B595B0FE20FFF7B1FC0500FF20FFF7ADFC04002A002149684604F098
:400FC000E9F96846FFF7B2FE22001E49684604F0E1F96846FFF7AAFE1220FFF799FC07001420FFF795FC05001520FFF791FC04002020FFF78DFC06003A001349684604F02D
:40100000C9F96846FFF792FEAB012A000F49684604F0C0F96846FFF789FEE30022000C49684604F0B7F96846FFF780FE32000949684604F0AFF96846FFF778FE15B0F0BDDE
:40104000046000002C600000546000006C6000008C600000AC600000F0B591B02D48FFF765FE0825002748E06B46DC1C0023237000F0F2FF002300222100280001F05EF8C3
:401080000600642404E00A2001F0F6FA013CA4B200F0CAFF430701D5002CF4D100F0C4FF002E23D1830521D40137FFB22A001A4901A804F06FF901A8FFF738FE6B2D03D148
:4010C0001648FFF733FE11E0642D03D11448FFF72DFE0BE02B00703BDBB2012B03D81148FFF724FE02E01048FFF720FE00F0B4FF012001F0A9FA0135EDB2772DB4D93A00EC
:401100000A4901A804F046F901A8FFF70FFE11B0F0BDC046C4600000E0600000FC600000146100002C610000286000004061000030B583B0040001AB187000225A70050034
:40114000203DEDB25E2D03D80121180000F0A0FC082C01D07F2C0FD1474B1B78002B00D187E0013BDBB2444A1370D31800221A714248FFF7DBFD7CE00D2C01D00A2C69D18F
:401180003F48FFF7D3FD3C4B1B78002B56D03A4B1B793F3BDAB2342A4DD89300394AD3589F46FFF7E7FD49E0FFF718FE46E0FFF77BFE43E03448FFF7B9FDFFF7D9FB0028CE
:4011C00003D03248FFF7B2FD02E03148FFF7AEFD3048FFF7ABFD28212F48FFF797FD002803D02E48FFF7A2FD28E02D48FFF79EFD24E00120FFF70EFC2A48FFF797FD1DE06F
:401200000020FFF707FC2848FFF790FD16E0FFF7E5FD1B48FFF78AFDFFF746FE0EE02348FFF784FDFFF7BEFE08E02148FFF77EFDFFF712FF02E01F48FFF778FD0E48002342
:40124000037004304022002104F09BF81A48FFF76DFD0EE05E2D0CD8074B1B783E2B08D85A1CD2B204490A70CB181C718A180023137103B030BDC04608020020686100005D
:4012800028600000F85B00006C6100008861000098610000AC610000AC0D0000CC610000E0610000F86100000C6200002062000040620000586200008062000070B582B092
:4012C00001AB1C78220000217020FFF7CBF92409E443E4B200237FE0012199400D0025404148C05C022844D0052863D001281BD058003E4E805B80B200286BD1002D06D099
:4013000058003225855301203749C85462E0384A1078C94349B20840107050780840507090780140917055E0002D12D058002F4D405B80B200284DD15D00FA262B482E5299
:4013400002252948C5542A4802781143C9B2017040E000252448C554254A1078C94349B20840107050780840507090780140917030E0002D0ED058001C4D405B80B2002815
:4013800028D105251848C554194842781143C9B241701FE000251448C554154A1078C94349B2084010705078084050709078014091700FE0002D0DD10B48C5540C4A107849
:4013C000C94349B2084010705078084050709078014091700133DBB2022B00D87CE7044B1878C0B202B070BD4C0200209C03002090020020F0B50025002711E0BB00C65811
:40140000F3B2FF22964308E06A008A181478A419527822700135013BDBB2002BF4D10137042FEBD9F0BDC04610B50A00002103F0A8FF10BD064B1B68002803D080221206C3
:40144000134301E05B005B08014A13607047C04680031A4010B5F423034A1360034A13600120FFF7E7FF10BD00031A4040031A4010B503F051FF03680C2B00D1FEE7FEE7BA
:4014800010B50300084A1068C318084A9A1A802A02DC054A136005E003F03EFF0C2303600120404210BDC046D0000020F003002070B50F4E0F4D13E029686B68AC680022E4
:4014C00002E001C901C30432A242FAD1E868002202E0002102C304328242FAD11035013E002EE9D103F01EFFFEF7E0FEFEE7C04601000000BC64000010B500230AE0032B3D
:4015000003D89A000949505800E009489900094A885001332F2BF2D9FEF7E6FD8022D205116801230B43136010BDC0460000000071140000000000200004000C014B1860F3
:401540007047C046C80105400004000C014B18607047C046D401054010B5040001F0FAF9054B1A6801218A431A601A680C4014431C6001F0F3F910BDC00105400004000CAC
:40158000014B18607047C046CC0105400004000C014B18607047C046D001054070B504000D0001F0D7F9AC40024B1C6001F0D6F970BDC0460800054010B501F0CBF9064A3B
:4015C000116808230B43136001F0C8F918210820FFF7E4FF10BDC04600000540014B18607047C046F801054010B5104C8023DB042360236823600020FFF79EFF23682360CE
:401600000C220B4B1A600120FFF7E8FF3122094B1A600948FFF798FF0020FFF7AFFF0120FFF79AFF0020FFF7B1FF10BDC0010540E4010540E8010540FFFF000010B5064B36
:401640001B78002B04D1FFF7CFFF0122024B1A70FFF7B2FF10BDC0464F020020014B18607047C046F00105400004000C014B18607047C046880105400004000C014B186044
:401680007047C0469401054010B5040001F062F9054B1A6801218A431A601A680C4014431C6001F05BF910BD800105400004000C014B18607047C0468C0105400004000C57
:4016C000014B18607047C0469001054070B504000D0001F03FF9AC40024B1C6001F03EF970BDC0460800054010B501F033F9064A116804230B43136001F030F918210420CD
:40170000FFF7E4FF10BDC04600000540014B18607047C046B801054010B5104C8023DB042360236823600020FFF79EFF236823600C220B4B1A600120FFF7E8FF3122094BA1
:401740001A600948FFF798FF0020FFF7AFFF0120FFF79AFF0020FFF7B1FF10BD80010540A4010540A8010540FFFF000010B5064B1B78002B04D1FFF7CFFF0122024B1A7007
:40178000FFF7B2FF10BDC046500200208C23014AD05070470000002010B5040001F0DAF8044A13689B009B08A4071C43146001F0D5F810BD10E400E080221203014B1A605F
:4017C0007047C04600E100E080221203014B1A607047C04680E100E010B50400FFF7F4FF2000FFF7D3FF0320FFF7D6FFFFF7E4FF10BDC04610B503210E2000F0FFFE45492A
:401800000E2000F0E9FE1F22434B1A60434B1B68002B01DA424900E04249434A13680B431360424A424B1A60424A434B1A608022D205424B1A60424B424A1360424A136052
:40184000424B1A68802149020A431A60404A13680B43136000233F4A13603F4A136001333E4A136002213E4A11603E4908683E4A024013430B60002248E03C4891000C5835
:40188000DC239B0123408018007D03433848844661440B60E30707D52E480168012393401B041B0C0B430360930030495B589B0707D529480168012393401B041B0C0B4340
:4018C00003609300294959588B0502D58020C00001E080204001CB0504D45300002425495C5203E041085300224C1953224B43438021C9008C466344D9174905490DCB1865
:40190000DB121BB290001D4943500132042AB4D910BDC046051A000020001A4080031A40C0201013C020001300001A40B500008004001A400000FF0718001A401C001A405C
:401940000400040010001A4014001A4000031A4040031A4028021A4038021A4018021A40000F1A4030001A40FFFFFFDFD462000080001A40BC03002010270000A803002041
:4019800010B5074B1B68002B08DB054A1368802109060B4313600A2000F06EFE10BDC04600001A4010B5064B1B78002B04D1FFF721FF0122024B1A70FFF7E2FF10BDC0462E
:4019C00051020020034A1368802149020B4313607047C04604001A4010B50400042802D9002000F0E7FD042C07D8A400044B9C46644420680004000C00E0002000B210BD7D
:401A000080011A40014B1A681A60704710021A4010B500F09FF810BD10B500F04DF810BD10B5044A1368802109060B431360FFF7EFFF10BD0000064010B5064B1B78002BB6
:401A400004D1FFF7E9FF0122024B1A70FFF7E8FF10BDC04652020020014B18687047C04640030640024B1B680F2018407047C04608030640044B1B680F221340082BF9D0CC
:401A8000024B18607047C046080206404002064070B506000D00002403E0305DFFF7EAFF0134AC42F9D370BD024B1B680F2018407047C04608020640134A144B1A60002348
:401AC000134A13601349144A1160144A14490A6007201449086014490B6006381349086013490A60134A1360134A1360134A1360134A1360134A1360134A1360134A13609A
:401B00001268134B1A8070470B000002000006404000064001000A004800064007000080000306400403064010030640440006400002064004020640880E0640C80E06407E
:401B4000480F0640080F0640C80F0640880F06405402002005490B68F0229343603A13430B60034B1A88034B1A6070471000014054020020880F064004490A68D2B204237A
:401B80009A438000184010430860704700040440024B186880080123184070470404044004490A68D2B208239A43C00018401043086070470004044010B50B2000F0E6FC03
:401BC00010BDC04610B500F01DF810BD10B5044A1368802109060B431360FFF7EDFF10BD0000074010B5064B1B78002B04D1FFF7E9FF0122024B1A70FFF7E8FF10BDC04655
:401C00005802002010B51B4A11680C230B4313600024194B1C60194A194B1A60194B1A4A13601A4A14601A4A14601A4A13601A4B1C600B2000F0B4FC03210B2000F0DEFCCB
:401C400016490B2000F0C8FC154B1C60154B1C60154B1C60154B1C60154B1C60154B1C601022154B1A70154B1C80154B1C60154B1C6010BD7000074000000740C708008014
:401C80006000074007010080000307400403074010030740000207400402074065290000C80E0740880E0740480F0740080F0740C80F0740880F0740C6030020D40300200D
:401CC000D0030020D803002010B5144A13685B005B081360002312490B6012490B601248046812492140016011490B6011490B601149124B19601249124B19601249134BF1
:401D000019601349134B19601021134B19701368802109060B43136010BDC04600000740680007406C00074060000740FF5CFFFF880F0740C80F0740F3070000800F0740AB
:401D4000ED0F0000C00F0740FF0F0000400F074017030000000F0740C603002010B504000368002B09D0012000F086FC2368013B2360002B03D0002003E0002001E080209D
:401D8000000610BD10B5002839DBC023034208D00022284B1A601032274B1A70002310243DE0C3070FD5244B1B781B072BD5234B1B685B0001D5002300E0012310211E4ADA
:401DC000117001242BE0C30520D4830722D4C30605D51022184B1A70002300241FE0164B1B781B0719D5144B1B78DB0701D5252200E02422104B1A70002300240FE0012394
:401E0000802424060BE00123012408E001238024640004E00023022401E000230024012B02D1FFF751FF02E0054A064B1A60200010BDC04668000740C603002060000740C4
:401E400017030000000F074070B582B004000D001600244B1B78102B40D10B2000F0A0FB214B1B68DB0734D4FA239B005E43019600221E4B1A601E4A1E4B1A601E4A1F4B85
:401E80001A606400FF231C40002D03D12422154B1A7004E02522134B1A7001231C43184B1C600222174B1A60124B1C680823FF3320001840144B1B68C024234018430400E2
:401EC00001A8FFF74BFF2043EED0FFF75BFF040000E008240B2000F059FB00E00424200002B070BDC603002064000740080F074017030000000F0740ED0F0000C00F07408E
:401F00004002074068000740400F074010B582B0104B1B789B061AD5FA239B00584301900D4B1B689B0601D5182200E010220B4B1A600B4B18681223FF331840040001A8CA
:401F4000FFF70CFF2043F4D0FFF71CFF00E0042002B010BDC60300206400074068000740000F074010B582B00D4B1B789B0613D5FA239B00594301910A4B18600A4B186819
:401F80000823FF331840040001A8FFF7E7FE2043F4D0FFF7F7FE00E0042002B010BDC046C603002040020740000F0740F0B583B004000D00164B1B789B0626D5FA239B0050
:401FC0005A430192134B18680223FF3318400700114B1B6804261E4001A8FFF7BFFE384333000343EED0002E05D00C4B1B682B700B4A094B1A60FFF7C5FE002806D1002C29
:4020000004D10422074B1A6000E0042003B0F0BDC6030020000F0740C00F074040030740ED0F00006800074010B50B2000F0B8FA074B1C88A2B21400064B1B789B0602D59F
:4020400004231A4394B20B2000F0A0FA200010BDD4030020C603002010B50B2000F0A0FA044B1C88A4B200221A800B2000F08EFA200010BDD403002070B52B4B1B682025AB
:402080001D402A4C03E0012000F0F6FA013C00F03BF9002801D1002CF5D1002C43D0002000F03AF9224A13680F218B431360214A13685B005B081360002D18D0002000F006
:4020C0002BF9032000F0D8FA012000F025F9032000F0D2FA154C03E0012000F0CDFA013C00F026F9002803D1002CF5D100E00F4C002C08D0002000F00FF9032000F0BCFA53
:4021000001220D4B1A600B4A1368802109060B43136007490B680F229343013A13430B60012000F0F9F870BD64000740204E00000C0001400000074068000740F0B583B040
:4021400001900C0017001D00002917D02A4B1B78102B08D10B2000F023FA284B1B68DB070ED508260FE0244B1B78602B0AD1244A138808218B431380002604E0042602E041
:40218000002600E00426002E2FD128221A4B1A7000231C4A13601C4A13601C4B1F601C4B1C60EAB21B4B1A70019B5C00FF231C40134A138802218B4313804023164A136036
:4021C0001649174A11601421FF31164A1160164A1360EB0704D5FFF74FFF144B1C6004E0124B1C600222124B1A600B2000F0CEF9300003B0F0BDC046C603002064000740F7
:40220000D4030020E0030020D8030020E8030020CC030020DC030020800F074017030000000F0740080F0740880F0740400207406800074010B582B0154B1B789B0623D573
:40224000FA239B005A4301924000FF240440002903D124220E4B1A7004E025220C4B1A7001231C43FFF708FF0A4B1C600A4B18680823FF331840040001A8FFF76FFD204350
:40228000F4D0FFF77FFD00E0042002B010BDC046C603002040020740000F0740014B98677047C0460000002010B5040000F052FB044A1168044B0B40A4051C43146000F09C
:4022C0004DFB10BD0CE400E0FFFF3FFF8022D201014B1A607047C04600E100E08022D201014B1A607047C04680E100E010B50400FFF7F4FF2000FFF7D1FF0320FFF7D4FF47
:40230000FFF7E4FF10BDC046024B1868400801231840704704030440044A1368DBB201218B430840184310607047C04600030440024B1B68012018407047C04604030440B0
:40234000024B1A68024B1A600020704708010B4060020020024B1A68024B1A60002070476002002008010B40F0B5474680B4A6B00500002325932493FF2800D9EFE000298C
:4023800000D1ECE0802204A802F0F2FF022300200021002408E09A0002AE9259002A02D0891810431C000133212BF4D9002903D1002803D1002602E0002600E00126002EF3
:4023C00006D0A30002AA9F58002202A95A5000E00027664B02937F230393654B02AA1A606449654A1160C0461B681B0F1B07F0221206934204D15E4B1B68FF2213400DE0EC
:402400005B4B1B681B0F1B07A0221206934204D0574B1B68FF22134000E000232593259B002B00D09DE000F095FA0190FFF788FF2490259B002B25D1504A029202992A04FF
:402440000A4302924A4A02A911604D484A490860C0461268120F1207F02109068A4204D1434B1B68FF2213400BE0414A1268120F1207A02109068A4203D03D4B1B68FF2276
:4024800013402593259B9846002B59D1002E57D08022002104A802F074FFA40002ABE750324B02937F230393314B02AA1A603149314A1160C0461B681B0F1B07F02212061C
:4024C000934205D12A4B1B68FF221A4090460CE0274B1B681B0F1B07A0221206934204D0234B1B68FF221A40904643462593259B002B25D1234A0292029A2D041543029517
:402500001B4A02A9116020481B490860C0461268120F1207F02109068A4204D1144B1B68FF2213400BE0124A1268120F1207A02109068A4203D00E4B1B68FF2213402593A3
:40254000249B002B07D1FFF705FF2490249B002B01D0249B2593019800F000FA01E004232593259826B004BC9046F0BDB6D70000080000400400008004000040B6D8000075
:4025800005000080B6D90000060000801F2318401E3B8340014A13607047C04600E100E01F2318401E3B8340014A13607047C04680E100E001BE704770B504000D000F283A
:4025C00002D90020FFF7F6FFA40080239B059C4664442068256070BD70B504000D001F2802D90020FFF7E6FF1034A40080239B059C4664442068256070BDC04670B50400D9
:402600000E00032902D90020FFF7D4FF1F2C02D90020FFF7CFFF03252540ED00063500F099F9A408A400074B9C46644421680323AB4099430B003100A9401943216000F0C7
:402640008DF970BD00E400E010B5040006E0084B586800F075F9074B9C46644480231B029C42F4D8024B9868604300F069F910BDD40000200080FFFF10B5034B1B7B5843B8
:4026800000F05EF910BDC046D4000020F0B557464E46C0B483B0040000F05CF90190E71E2D2F74D83F4B1B78DBB29C4208D83E4B1B78DBB29A463D4B1B78DBB2994631E07F
:4026C0003B4B1B78DBB29C4208D83A4B1B78DBB29A46394B1B78DBB2994623E0374B1B78DBB29C4208D8364B1B78DBB29A46354B1B78DBB2994615E0334B1B78DBB29C429A
:4027000008D8324B1B78DBB29A46314B1B78DBB2994607E02F4B1B78DBB29A462E4B1B78DBB299462D4BDE5D2F2E09D92A2C07D919222B4B1A60052000F002F9192503E064
:40274000274B1D683F231D40B54206D9234BDA5D234B1A60052000F0F3F81F4B9C4664442378DBB21F4A13601F4B52461A601F4B4A461A600520FFF77FFFB5420AD2174B8A
:40278000DA5D174B1A60052000F0DAF802E00020FFF710FF019800F0E1F803B00CBC91469A46F0BDC0F1FF0FC1F1FF0FC2F1FF0FC3F1FF0FC4F1FF0FC5F1FF0FC6F1FF0F89
:4027C000C7F1FF0FC8F1FF0FC9F1FF0FCAF1FF0FCBF1FF0FCCF1FF0FCDF1FF0FF06200002CFF0B4028FF0B401CFF0B4020FF0B40034B1868C0231B02184000D00120704782
:4028000000010B4010B500F0A5F8044A1368C02109020B43136000F0A1F810BD00010B4010B500F097F808490A68084B1A408024E40122430A600A68134080221202134305
:402840000B6000F08BF810BD00010B40FF3FFFFF70B5050000F07EF80400FFF7C9FF002803D0FFF7DDFF012100E0002108482840084A1568084B2B4018431060136801292E
:4028800001D1FFF7BFFF200000F068F870BDC0460404040010020B40FBFBFBFF10B5244B1B685B0715D5234B1B685B070ED5224BD969042001401F4C22688A432260DA69C2
:4028C0008243DA611B69002B00D098470420FFF7BFFF174B1B685B0518D5164B1B685B0510D5154BD9698022D2001140114802688A430260D969114A0A40DA615B69002BDD
:4029000000D098478020C000FFF7A2FF084B1B685B030CD5074B1B685B0304D5064B9B69002B00D098478020C002FFF791FF10BD10020B40E800002064020020FFFBFFFF09
:402940000230800804D0C0460138FDD1C046C046C0467047EFF3108072B6704780F310887047C04610B5AD4B1B68002B00D09847AB4B1B68DB0702D50022AA4B1A60AA4B08
:402980001B789B0628D5A94B1B68DB0507D5A84A1188C0239B000B431380012300E00023A24A1268D20706D5A14A118890239B000B4313800123002B0FD09B4A1278D2075F
:4029C00001D5012200E002229949088802430A800021954A117000E00023934A1278920600D414E1914A1268D20611D51022914B1A608D4B1B78DB0701D5012300E0022366
:402A00008B4A11880B4313801022874B1A7004E1854A1278120720D5844A126892070AD50222844B1A60824A118888239B000B431380012311E07C4A1278D20703D5252158
:402A4000794A117009E02421774A11707A4A1268002A02D01439794A1160734A1278520700D4ABE0704A1278D20749D5744A1268120727D5734A1268734909680F240C407D
:402A8000724909686418141B082C09D8002C16D16F4A11686F4B0B401360012308340EE008240CE0694A11686B48006841186B480068C0B20870116801311160013C002CDD
:402AC000F0D119E05E4A1268520715D55F4A116861480068411861480068C0B208701168013111601168574A1268914203D204215B4A116000E001235A495B4A11605DE0A3
:402B00004A4A1268920726D502224A4B1A6057490B680D321A40096880231B020B4000D001239B18524A1168CB1A13601268514B1A603F4A118884239B000B4313804E4B16
:402B40001A68802149020A431A6019684B4A0A401A60012332E04A4A1268D20612D424E0434A1168344A1268914211D2404A11684448006841180978C9B2434801601168DB
:402B800001311160394A12680F210A40082AE7D1374A1168284A1268914202D14021274A11603A493A4A116008E0354A1268520604D52F4B1A682F4B1A600123002B2CD07D
:402BC000234A1168234B0B4013600023314A13601A4A1360304B1B789B070ED5124B1B78DB0701D5092300E00A23114A11880B43138060220C4B1A700FE0284B1B689B06A9
:402C000001D5182200E01022154B1A6005E0064B1B78DB0601D4FFF757F810BD5C0200208C0E0740880E0740C60300200C0F0740D4030020000F0740E8030020880F07404A
:402C4000CC0F0740E403002008030740D003002060000740FFFEFFFFC80300204003074068000740ED0F0000C00F074008020740E0030020D803002004020740FFFFFEFF77
:402C80008C0F0740CC03002040020740F3070000800F0740C80F0740DC03002064000740002243088B4274D303098B425FD3030A8B4244D3030B8B4228D3030C8B420DD313
:402CC000FF22090212BA030C8B4202D31212090265D0030B8B4219D300E0090AC30B8B4201D3CB03C01A5241830B8B4201D38B03C01A5241430B8B4201D34B03C01A52418F
:402D0000030B8B4201D30B03C01A5241C30A8B4201D3CB02C01A5241830A8B4201D38B02C01A5241430A8B4201D34B02C01A5241030A8B4201D30B02C01A5241CDD2C3095E
:402D40008B4201D3CB01C01A524183098B4201D38B01C01A524143098B4201D34B01C01A524103098B4201D30B01C01A5241C3088B4201D3CB00C01A524183088B4201D3B7
:402D80008B00C01A524143088B4201D34B00C01A5241411A00D20146524110467047FFE701B5002000F006F802BDC0460029F7D076E770477047C0468446081C6146FFE7B8
:402DC0001FB500F065FB002801D40021C8421FBD10B500F0F1FA4042013010BD10B500F057FB002801DB002010BD012010BDC04610B500F04DFB002801DD002010BD01208E
:402E000010BDC04610B500F0FFFA002801DC002010BD012010BDC04610B500F0F5FA002801DA002010BD012010BDC0469E2110B5C905041CFFF7F0FF002803D1201C00F024
:402E40001DFE10BD9E21201CC90500F079FC00F015FE80231B069C466044F2E770B500220C4B04000D0002F021F9002804D12000290001F08FFF70BD064B002220002900AD
:402E800001F034FC01F086FF80231B069C466044F1E7C0460000E041F8B54A02430244004E00C50F240E28009B09360EC90F92098D4259D0A01B002800DC8DE0002E1AD19C
:402EC000002A00D079E05A0704D00F221A40042A00D004335A0138D50134FF2C00D189E028009B015B0AE4B25B02E4055B0A2343C0071843F8BDFF2CE5D08021C9040A4346
:402F00001B2800DD89E016002021C640081A8240511E8A4132439B1A5A0114D59B019E09300002F0CDF805388640844265DC041B330020200134E340041BA640721E964195
:402F400000243343BFE75A07BFD1DF082800FF2C2FD1002F00D187E08022D20313003B435B025B0AFF24BFE7A11B002949DD002E29D0FF2CA7D08026F60432431B2900DDE2
:402F80008DE017002026CF40711A8A40511E8A413A439B185A01D6D50134FF2C64D0012276491A405B080B4013438CE7031ECAD100207B025B0AE4B296E701380028AAD080
:402FC000FF2C9DD17FE7002A00D17CE701390029DFD0FF2CD2D176E7002820D1601CC0B2012853DD80279E1AFF0437402FD0D61A0D0095E72800002376E7614B241A334081
:4030000061E700294DD1611CCEB2012E2FDDFF292AD09B185B080C0055E701227BE7002C1BD1002B5BD0C04300280CD0FF2E7ED01B2800DD92E01D002024C540201A8340DF
:40304000581E83412B43D31A34000D0064E7002E00D065E700200024ABE7FF2E67D08024E40440422343E3E7FF2400233CE7002C61D1002B7ED0002A00D124E79B185A0119
:4030800000D460E73E4A0C0013401CE7002C1ED1002B2FD1002A66D013000D0013E7012277E7002C1FD1002B5AD0C94300290BD0FF2E50D01B295FDC1F002024CF40611A90
:4030C0008B40591E8B413B439B18340062E7002B1CD1002A4AD013000D00FF24F3E6130034000D00EFE6FF2E35D08024E40449422343DFE7002A00D1E5E68027981AFF04DC
:40310000074000D152E7D31A0D00DCE6FF24002A00D1D8E68020DB08C003034204D0D208024201D113000D00DB00FF24CBE61300FF240D00C7E6002B0DD0FF24002A00D172
:40314000C1E68021DB08C9030B42EDD0D2080A42EAD11300E8E71300FF24B4E6012372E713003400AFE60027002022E780270020FF03F1E61300A6E60123A5E7FFFFFF7DA9
:40318000FFFFFFFBF0B5564644465F464D46F0B444024600C70F83B08846650A360EBA463DD0FF2E22D00023EC00802599469B46ED0425437F3E43465C025800DB0F640A0D
:4031C000000E984636D0FF2830D080230021E400DB041C437F38301A0190484642460843724E800030587A4013008746002D44D108239946063B9B46DDE70122FF200024E3
:403200001A406402C305640AD2071C431443200003B03CBC90469946A246AB46F0BD002D20D104239946033B9B46C4E7002C17D1022102E0002C0AD10121321A01924A4664
:4032400043460A435A48920082587B409746200001F036FF431F76309C4040420021BAE70321B8E7280001F02BFF431F9D4000237630464299469B469DE70C239946093B38
:403280009B4698E780240022E403FF20B9E70024C2468B465A465346022AAED0032A7DD0012A31D1012200201A400024A9E70122101A1B2856DD1A4000200024A1E78023DE
:4032C000DB031D424BD18023DB032B435C02640A3A00FF2095E76D016001854230D2019A0024013A01921B220127290064006D00002901DBA84201D82D1A3C43013A002A6E
:40330000F3D16A1E95412C4301987F300028CEDD620704D00F222240042A00D00434220103D5244A019814408030FE2800DD64E70122A401640AC0B21A4062E72C00A9E780
:403340002D1A1A220124CFE76B02BCD500248023DB031C436402640A4246FF2051E71C42B3D1F4E721002022C140101A8440621E94410C43620704D00F222240042A00D0B9
:403380000434620104D5012201201A40002438E70122A401640A1A40002032E78023DB031C436402640A5246FF202AE72063000060630000FFFFFFF7430270B542004C0041
:4033C0005D0AC30F4802120E460A240EC90FFF2A0FD0FF2C11D00120A24200D070BDB542FCD18B420DD0002AF8D12800431E9841F4E70120002DF1D1EBE70120002EEDD12D
:40340000E9E70020EAE7C0464302F0B542005D0AC30F4802440A4800120E000EC90FFF2A1FD0FF2822D0002A09D16E426E4100280FD1002C0DD10020002D09D005E00028A1
:4034400001D1002C01D08B4213D0584201231843F0BD002EF7D048424141012049420843F6E7002DDDD002204042F1E7002CDAD0F9E78242E9DC04DBA542E6D80020A54212
:40348000E6D25842434101205B421843E0E7C0464302F0B542004C005E0AC30F4802120E450A240EC90FFF2A17D0FF2C19D0002A0BD170427041002C17D0002807D04842B2
:4034C0004141012049420843F0BD002C13D08B4214D0584201231843F6E70220002EF3D1E3E70220002DEFD1E1E7002DE5D10020002EE9D0EDE7002DE9D1EAE7A242E8DC1D
:4035000004DBAE42E5D80020AE42DDD25842434101205B421843D7E7F0B557464E4645464300E0B446028846760A1F0EC40F002F47D0FF2F25D0002380259A469946F60097
:40354000ED042E437F3F434642465D02D20F5B006D0A1B0E904640D0FF2B39D080220020ED00D20415437F3BFB1842465746591C62408C4607430F2F5CD86F49BF00C959B9
:403580008F46002E45D108239A46063B9946DAE7424602282DD0032800D1C3E0012800D0A2E0002500260240D4B27602ED05760A2E43E407264330001CBC90469946A246D6
:4035C000F0BD002E1AD104239A46033B9946BAE72A00511E8A41901CC6E70120002DC3D0280001F06DFD431F76309D4043420020BAE70124FF2514400026D6E7300001F053
:403600005FFD431F9E400023763047429A46994699E70C239A46093B994694E780260024F603FF25C1E735004846B2E7350022004846AEE72904090C0800370C3604360C42
:403640002C0C7943704367437443060C64183619B14203D980214902884647440004000C310409188D01681E8541890E2943350CED19AD010D43290104D5012369081D40D4
:4036800063460D4319007F31002925DD680704D00F202840042800D00435280103D5274980330D401900FE29A3DC0124AD016E0A1440CDB279E78020C003064207D0054297
:4036C00005D128434602760A4446FF256DE706437602760AFF2568E70124611A1B2905DD14400025002660E76346CBE72E002023CE40591A8D406B1E9D412E43730704D01F
:403700000F233340042B00D00436730104D5012401251440002648E70124B601760A1440002542E780260124F6032E437602760A1440FF2539E7C046A0630000FFFFFFF7AA
:40374000F8B54A024E0043024400240EC50F9B09360EC90F9209FF2E00D183E001204140A01BA9425CD0002800DC95E0002E1CD1002A00D081E05A0704D00F221A40042A66
:4037800000D004335A013BD50134FF2C00D191E001209B015B0AE4B205405B02E4055B0AED0723432B431800F8BDFF2CE3D08021C9040A431B2800DD90E016002021C64032
:4037C000081A8240511E8A4132439B1A5A0115D59B019E09300001F073FC0538864084426CDC041B330020200134E340041BA640721E964100243343BDE70D005A07BCD1C9
:40380000DF0801231D40FF2C33D1002F00D190E08022D20313003B435B025B0AFF24BCE700284FDD002E2ED0FF2CA4D08025ED042A431B2800DD97E016002025C640281A95
:403840008240501E824132439B185A01D5D50134FF2C6DD001227B481A405B08034013430D0088E7002A00D07AE777E7031EC5D100257B025B0AE4B28FE701380028A4D07B
:40388000FF2C97D177E7002A00D174E701380028DAD0FF2CCDD16EE7002821D1601CC0B2012858DD80279E1AFF0437402FD0D61A0D008FE701231D4000236EE7624B241A03
:4038C000334058E7002851D1601CC6B2012E33DDFF282DD09B185B0804004CE7012274E7002C1AD0FF2E1FD08024E404404223431B2800DD96E01D002024C540201A83400B
:40390000581E83412B43D31A34000D005EE7002E00D05FE700250024ABE7002B44D0C0430028F0D0FF2EE3D11300FF240D0022E70D00FF24002330E7002C5DD1002B7DD0BA
:40394000002A00D117E79B185A0100D456E73E4A040013400FE7002C1ED1002B2FD1002A65D013000D0006E701226DE7002C1FD1002B59D0C04300280BD0FF2E4FD01B282C
:403980005EDC1D002024C540201A8340581E83412B439B18340058E7002B1CD1002A49D013000D00FF24E6E6130034000D00E2E6FF2E34D08024E40440422343DFE7002A81
:4039C00000D1D8E68027981AFF04074000D14DE7D31A0D00CFE6FF24002A00D1CBE68020DB08C003034204D0D208024201D113000D00DB00FF24BEE6002B10D0FF24002AA9
:403A000000D1B8E68020DB08C003034203D0D208024200D11300DB000D00FF24ABE61300FF24A8E601236EE713003400A3E6002700251EE780270025FF03E9E613009AE68D
:403A40000123A6E7FFFFFF7DFFFFFFFB43025A0A40004B024900000E5B0A090EFF2803D00020FF2906D07047FE38002AFBD10020FF29F8D11800431E9841F4E74302590A39
:403A80004300C20F1B0E00207E2B0EDD9D2B0DDC802000040143952B0BDC9620C31AD9400B005842002A00D118007047034BD018FBE7963B99400B00F3E7C046FFFFFF7F91
:403AC00070B5002830D0C317C5185D40C40F280001F0F6FA9E231B1A962B0DDC9622D21A95406A02520AD8B25202C005520AE40702432243100070BD992B19DC9922D21A37
:403B00009540124A2A40690704D00F210D40042D00D00432510103D50C4B1A409F231B1A9201520AD8B2DFE7002400200022DBE705222E00121AB921D6402A00C91A8A4071
:403B4000551EAA4135001543DBE7C046FFFFFFFB70B5041E28D001F0B3FA9E231B1A962B0ADC9622D21A94406202520AD8B25202520AC005104370BD992B18DC9922D21A0A
:403B80009440114A2240610704D00F210C40042C00D00432510103D50B4B1A409F231B1A9201520AD8B2E2E700200022DFE705222500121AB921D5402200C91A8A40541EC3
:403BC000A2412C001443DCE7FFFFFFFBF0B556464D4644465F46F0B41D000E034C00CB0F87B0070092468146360B640D98466AD06D4B9C4235D08022430F12041343F60011
:403C00001E43C3009946694B00279C460023644402932B0368001B0BED0F51469B46400D009500D178E0604B98426CD05B46DA004B0F802109040B4313439B465346D900EE
:403C40005A4B9C46002360444246201A6A40924601901F430F2F00D9B0E05548BF00C0598746374300D088E0002399460233082700260293CDE74346B34649460093029B0E
:403C8000009A9246022B00D0BFE1002153460122002689461A40444B002136030C0D2405360B2643434C1B0526401E437600D207760816434846310007B03CBC9046994635
:403CC000A246AB46F0BD330003434FD0002E00D1BCE1300001F0F4F903000B3B1C2B00DDADE11D220100D31A08393A008F408E40DA40B9461643304B00279C4600236044FF
:403D00004442029385E753465A4613432CD1002300219B46023397E70B4320D05B46002B00D19EE1584601F0CBF903000B3B1C2B00DD8FE102005946083A91408B461D214B
:403D4000CB1A5146D9400B0059460B4351469B469140194B9C4660444042002374E7002300219B4601336FE703236DE70023994601330427002602934BE703230C2702931E
:403D800047E70122D51A382D00DCB0E153461A4000210023002689467EE700238026994600223603004B77E7FF07000001FCFFFFE0630000FFFF0F80F30300005E4500D971
:403DC00072E100D16DE1019B4D46013B01930023340002935B461E020B0E1E430B020393330C994633041B0C494620000093FEF757FF009B37004343060049462000984694
:403E0000FEF7D4FF2C0C09040C43A04509D9E419731EA74200D95CE1A04500D859E1023EE4194346E41A49462000FEF739FF0300009A80465343494620009B46FEF7B6FF08
:403E40002A040904120C0A4393450DD94346D219013B974200D93AE1934500D837E102235B429C46D219E0445B46D21A4346360433439B460399180C0B0C1D0005930904A6
:403E80005B46090C0C001B041B0C4443049159436B4368431B190D0CEB189C4203D980246402A44660441C0C09041B04090C20185D18824200D2DEE000D1D7E0161A029B88
:403EC0009C465D1BAC459B415B42F61AB74200D106E149463000FEF7E3FE009B04004343494630009846FEF761FF2E0C09040E43B04509D9F619631EB74200D9F3E0B045F8
:403F000000D8F0E0023CF6194346F31A494618000293FEF7C5FE009B06004343494602989846FEF743FF2D0409042D0C0D43A84509D9ED19731EAF4200D9D6E0A84500D82B
:403F4000D3E0023EED192404210043463143049E059A3000ED1A0B040C0C1B0C58436643534354439A19030C9B189E4203D980225202944664441A0C00041B04000C1419A0
:403F80001B18A54250D34DD001231943964A019B94466344002B00DCF3E64A0709D00F220A40042A05D00A1D8A42894149428B4411005A46D20108D55A468C4B1A40934680
:403FC0008022D2009446019B6344894A934200DD5BE65A46C908500708435602514601225B058146360B5B0D0A4055E680231B031E4211D05A461A420ED15E461E433603D5
:40400000360B2A0089467B4B46E6032B00D1E1E0012BBBD11A40BBE61E433603360B4246744B39E6002BB1D07D194A1EAF4252D91100A542A8D1039A9A42A5D1A6E70300EA
:404040003E00283B9E400023994654E601F038F8203041E603005246283B9A400021934677E6504601F02CF820305EE6029B0026AB4200D323E7039E0299B4466144884649
:40408000B045B6415B467642F619B218013B0291974213D290424FD800D18EE0161A9B460DE7894500D28EE674084B46F60735005B081D434B46DB0702938BE69742EDD1F2
:4040C0000399029CA142E5D93E1A9B46F7E69846CAE61E00A5E6AC423ED874D0110053E70121494252E71C000EE71E002BE71F2D3CDC20230A0058465B1B9840EA4099403E
:404100000243481E81415E461143EE404B0709D00F230B40042B05D00B00191D99429B415B42F61833023CD55346012200211A40002601238946AFE502235B429C46039C30
:40414000E344A446029B63449846A045B6417642F6190293B218B1E603988A1E41008142B6417642F619AD19039161E71F225242D31A5A46DA401300202D29D040225846F7
:40418000551BA8400143481E814107200B4318400026002809D00F2200261A401900042ABBD10B0070077602360BDB0803439946012253461A4000236EE502998D42BBD8F7
:4041C0009B4600267BE603989842C5D3110032E70020D7E780265B4636031E433603360B009A8946034B57E5FF030000FFFFFFFEFE070000FF070000F0B55F4656464D4673
:404200004446F0B40D0399464E002B0B87B00700924680469B46760DCC0F002E69D06D4B9E4235D05B468022DD001204430F13432B439B46C3009846674B00279C46002312
:40424000664401934A4615035000D20F53462D0B400D914600D176E05E4A90426CD080225B0F120413435C4AED0094461D4353460022DB00604449463618701C614002903A
:4042800017430F2F00D9AFE05448BF00C759BF465B461F4300D088E000239B469846023308270193CEE74946022A6AD0032A00D109E2012A00D0BBE1114000220023002584
:4042C0009046CCB200212D030A0D12052D0B1543434A1B0515401D436D00E4076D0825434046290007B03CBC90469946A246AB46F0BD034352D05B46002B00D18AE158461D
:4043000000F0DEFE03000B3B1C2B00DD7BE11D22D31A3A0001005D46DA4008398D4013008F402B439B46B8462E4B00279C46002360444642019385E752462A432CD100258F
:404340000023022297E752462A4321D0002D00D154E1280000F0B4FE03000B3B1C2B00DD46E11D21CB1A51460200D9405346083A954093400D431B4A9446604440420022C2
:4043800079E7012400220C40124B0025904699E70025002301226EE703226CE700239B4698460133042701934CE703230C27019348E700238025984600242D03054B81E724
:4043C0005D464346019A6FE75D4643462100019A6AE7C046FF07000001FCFFFF20640000FFFF0F80F30300004246120C91461A0C9446424617044A461B041B0C5A43604620
:4044000090464A4642431000039262461C003F0C7A437C4342440192220C9246019A5244904506D98246802040028046C24450460390100C049048462404240C12041219E7
:4044400005922A0C2D042D0C68432C00824648467C4350438146200C8046574357444744BA4503D9802040028046C144380C3F04B84648442404240C01900498A044404487
:4044800004905846000C814658460404200C8246070048465F434C464343604660436446834650464443380C8446E4186444A34203D980235B029C46E34448463F04230CB9
:4044C0003F0C2404E419574668436F4384464D46504655434243380C814662444A445B44944503D9802040028446654403983F04834604983F0C8446E344C3458041404290
:404500008246100484460198674484466744A344BC46A345A4419946D44464428742BF41D4458041E144A04699459B417F424042C8440743120CBA18A045A4415F423B0032
:4045400064422343D71843467D19DB0D6D021D435B465A02059B1A43531E9A415B46DB0D1A4343465B021343EA0107D501225C0813402343EA07029E13436D08574AB21834
:40458000002A4BDD580709D00F201840042805D0181D98429B415B42ED180300E80104D54F4A15408022D200B2184E48824200DDE7E60124DB08680718436D025305804608
:4045C0002D0B5B0D0C407DE6802259461203114208D0154206D115432D0398462D0B4C46414B6FE65D4615432D032D0B3E4B69E603005546283B9D400023BCE6504600F048
:404600005FFD2030A8E60300283B9F400023BB46984689E600F054FD203073E60124A61A382E07DD00220C4000230025904649E6029EA3E71F2E20DC20222C001800921B10
:40464000F040944093400443581E83411C43F540630709D00F232340042B05D023001C1D9C4292415242AD182B021FD5012400220C4001230025904624E61F202C00404242
:40468000821AD440202E1CD04022961BB5402B43581E83410720234318400025002809D00F2200251A401C00042AD8D1230068076D022D0B0124DB08034398460C400023DE
:4046C00000E60025E3E780220124120315432D0398462D0B0C40044BF4E5C046FF030000FFFFFFFEFE070000FF070000F0B557464E464546E0B40E001100F20F9246C50037
:40470000420F180337037400400A4E0F7F0A3043CF4E17435A00640D520DDB0FC900B24200D1E5E001267340A61AB446534500D1AFE0002E00DC0DE1002A3AD103000B43D4
:4047400000D0E4E06B0709D00F232B40042B05D02B1DAB42AD416D427F191D003B0200D488E0BB4B01349C4200D110E13A00B94B51461A4001235007ED085202640505433A
:40478000120B640D0B400021280012030D0D120B64052D0515436208AF4CDB072C401443640064081C4321001CBC90469946A246F0BDA74B9C42C5D080231B0418436346F1
:4047C000382B00DDFDE01F2B00DD30E1624620239B1A02009A40664690460A009940F24046464B1E99413243114363460200DA40691A8D429B410D00BA1A5B42D71A3B021A
:4048000035D57A02530A98464346002B00D1C4E0404600F055FC0300083B1F2B00DDC5E020222900D21A4746D1409F400A009D403A439C4200DDC0E01C1B631C1F2B00DD45
:40484000E4E0202114002800C91AD8408C408D400443DA40681E854117002543002471E7424663461A4300D14CE2674645466B0700D069E7012351467807ED08FA080B40E8
:40488000054373498C4238D012036405120B640D79E7002E00DC9AE0002A47D06C4A944200D14FE78022120410436246382A00DC08E10143481E81410022C9B24919D2192A
:4048C000A942BF410D007F42BF183A0200D442E15F4A0134944200D14EE101205D4A69083A4028400843D507054357089A4629E706000E4300D017E714E72900114300D1FA
:40490000F9E1802109030A431203120B3BE701235B429846C4446346002B72D1691A8D429B413F1A5B42FF1A0D0068E702000A4300D107E7012252429046C4446246002A83
:4049400000D0E6E06918A942B6413F187642F7190D00BAE7002E00D080E0621C5205520D012A00DCF9E06A1A91464D45B6413A1A7642921B9046120200D499E04D1BA942D8
:404980008941C71B49427A1A90469A463CE752460123002513400022F5E6280000F090FB20300300083B1F2B00DC39E72A002838824000259C4200DC3EE7264FE41A174089
:4049C000C0E60143481E81410022C9B210E7002E00D0F1E0621C94465205520D012A00DCA0E01B4A944500D1C5E06918A94292413F185242D2194908D5070D43570864465E
:404A0000A0E6134B9C4200D0D9E69BE611001F3CE1400C00202B00D180E04021CB1A9A4015436A1E95410027254300241FE763460200203BDA406346202B71D0402366469C
:404A40009B1B98400143481E814111430022CFE6FF070000FFFF7FFFFFFF0F80002C48D0CA4CA24200D1A2E07442A1468024240427434C46382C00DDDBE01F2C00DD44E1C3
:404A80004E462024A41B3E00A640A246B0464C462E00E640B4464646644626435446A5406C1EA54134002C434D46EF400D1B28E04A4643464D461A4300D0A5E600230024AF
:404AC0000025DEE61F2A5ADC66462022921B060096409146B04662460E00D640424616434A4691404A1E9141020060463143C240E4E63C002C435AD0F443A146002C52D198
:404B00004D1BA9428941C71B49427F1A14009A4675E69E4A944200D0C7E613E600227FE700208FE7002C00D0C8E03B002B4300D10FE103000B4300D104E66918A9429B414F
:404B40003F185B42DF193B0200D41AE1904B0D001F406446F6E59A4689E63A002A43002C5CD1002A75D102000A4300D1CAE007000D009A46E6E564460022002581E6624629
:404B80000600203AD6406246B046202A00D1B7E040226646921B904001434246481E8141114300228AE6794CA24200D061E707000D0014009A46C5E5002C41D13C002C436E
:404BC00078D0F443A146002C20D0704CA24271D04C46382C00DDB2E01F2C00DDBCE02026341BA2463C005646B4404E46A0462C00F440A446444666463443A4465446A54006
:404C000064466E1EB54125434C46E7406D188D4289413F184942CF19140056E6002A2FD102000A4300D184E007000D009A46574C88E53D436F1EBD41ECB200270D1B60E7FE
:404C4000524CA24236D0744280263604A1463743BEE702000A4300D174E56A1A90464545B6413A1A7642921B9446120200D4F7E54D1BA9428941C71B49427F1A9A4661E51C
:404C800002000A433AD0ED087C072C438025FA082D032A4208D0C7082F4205D145072C003A009A46C9080C43670FD200E5001743364C47E507000D00140043E53A002A43A5
:404CC00043D002000A4319D0ED087C072C438025FA082D032A4207D0C6082E4204D147073C003200C9080C43D700620FE50017439A46264C26E50022002544E5234C21E5B0
:404D0000002049E700230025BBE54C463E00203CE6404C46B446202C31D040244E46A61BB7403D436C1EA54164462C4300270D1BE7E6802200231203144C0025A1E53D43D6
:404D40006F1EBD410027EDB260E707000D000F4CF8E407000D00F5E44E463C00203EF440A0464C46202C0ED040244E46A41BA7403D436F1EBD4144460027254346E7002749
:404D8000CFE70D0073E50027F2E7C046FF070000FFFF7FFF0B0330B5134D1A0B4B005B0DC90F0024AB4211DD104CA34210DC8024640322430E4CE41A1F2C0CDD0D48C31AF3
:404DC000DA4013005C42002900D11C00200030BD094BCC18FAE7E040084CA44663449A4013000343EEE7C046FE0300001D0400003304000013040000FFFFFF7FEDFBFFFFC7
:404E000070B5002830D0C317C4185C40C50F200000F056F9174B184A1B1AD21A1F2A18DD164AD21A9440002224035B05240B5B0D0021100024030A0D1205240B1443104AB7
:404E40001B0514401C436400ED0764082C43210070BD210091400A000B21081AC4405B052403240B5B0DE3E70025002300240022DEE7C0461E0400003304000013040000DF
:404E8000FFFF0F804200120E511C4302C9B270B55D0AC40F012915DDE02189008C466D071B0B6244002128000D0D2D052B431C4D52052B40520813435B00E4075B082343D2
:404EC000190070BD002A15D1002D1FD0280000F0F7F80A281DDC0B232A001B1ADA4013000200153295400F4A1B03121A52051B0B520DD7E7002D06D080221B0B12031343C3
:404F00006D07094ACEE7084A0023CBE700220023C8E703000B3B9D402B000025E3E7C046FFFF0F8089030000FF0700004B0070B55E0D0C03751C640A420F6D052243C90F8C
:404F4000C4006D0D012D2ADD3B4BF318FE2B1ADC002B42DD8001451EA841D2001043620F0243500704D00F201040042800D004328020C004104021D00133FF2B03D09201D7
:404F8000520ADBB201E0FF2300225202520ADB0513435B00C9075B080B43180070BD002E07D01443EFD08020D20080040243FF23D7E722430023002A03D00522D208FF2BF6
:404FC00003D05202520ADBB2DFE7002A32D08020C00302435202520AD7E71800173014DB8020000402431E20C01A1F280FDC2500124BF3189D406E1EB5419A402B001343D1
:405000002200C2401A430023ABE70023D5E702256D42EB1A1500DD40202809D0084BF3189A401443621E9441220000232A4398E70022F6E70022A8E780FCFFFF82FCFFFF72
:40504000A2FCFFFF8446101C62468C46191C634600E0C0461FB500F0F5F8002801D40021C8421FBD10B500F049F84042013010BD10B500F0E7F8002801DB002010BD01208F
:4050800010BDC04610B500F0DDF8002801DD002010BD012010BDC04610B500F06FF8002801DC002010BD012010BDC04610B500F065F8002801DA002010BD012010BDC046B4
:4050C0001C2101231B04984201D3000C10391B0A984201D3000A08391B09984201D30009043902A2105C40187047C04604030202010101010000000000000000F0B55F4679
:4051000056464D464446F0B41F035C00DB0F9A46194B0E034D00C90F8046360B6D0D8B4691463F0B640D9D4219D0134B9C421BD00123A54206D018003CBC90469946A246CF
:40514000AB46F0BDBE42F6D1C845F4D1D34510D0002DF0D1304303005A1E9341EBE7310001230143E7D1E0E73A430123002AE2D1DEE70023DFE7C046FF070000F0B55F46E4
:40518000444656464D46F0B41F033C0B2C4F0E034D00A3465C008446360B6D0DC90F9046640DDB0FBD422BD0254FBC422ED0002D0ED130430700814678427841002C17D13F
:4051C0005F463A4314D14B460020002B0AD006E0002C02D15846024301D099421AD00123484218433CBC90469946A246AB46F0BD0028F2D058425841012240421043F1E76B
:4052000037000743D0D002204042EBE75F461743CDD0F8E7A542E2DC05DB5E45DFD808D000205E45DED248424841012340421843D8E7C445D3D80020C445F4D3D2E7C046FC
:40524000FF070000F0B55F464D4644465646F0B41C03240BA4462F4C0F034D005E00C90F80463F0B6D0D8B469146760DDB0FA54220D0284CA64222D0002D12D13843444264
:405280004441002E20D0002C0DD05C42634101245B421C4320003CBC90469946A246AB46F0BD002E17D05B4519D05B465C4201231C43EFE7390002240143EBD1D9E7614690
:4052C00002241143E6D1D7E761460A43DBD100240028DFD0E9E761460A43E4D1E5E7B54203DD01225C421443D4E7B542CDDB6745DBD809D000246745CCD259464C42614121
:40530000012449420C43C5E7C845CED80024C845F3D3BFE7FF070000014B18687047C0464C0100200E4B70B500251E000D4CE41AA410A54204D0AB00F35898470135F8E705
:4053400001F0AAF8084B00251E00084CE41AA410A54204D0AB00F35898470135F8E770BDA4640000A4640000A4640000AC640000002310B59A4203D0CC5CC4540133F9E719
:4053800010BD03008218934202D019700133FAE7704700000EB410B59DB002A9029008610B48822488604861012040421FABC881084804CBA400006801938C8100F076F8A3
:4053C0000023029A13701DB010BC08BC03B01847FFFFFF7F4C0100200023C25C0133002AFBD1581E70470000F0B58E6885B007000C00039201939E4243D890238A89DB00D3
:405400001A423ED003250969236801985B1A029363695D43EB0F5D19029B6D1001331B18AB4200D91D00530510D52900380000F037FB061E14D0029A2169FFF799FFA28953
:40544000194B134080221343A38112E02A00380000F086FB061E0CD12169380000F0D4FA0C23402201203B60A38940421343A38117E0029B2661F61826606561019EED1A83
:40548000A560019BB34200D21E0032000399206800F0A5FA0020A3689B1BA36023689E19266005B0F0BDC0467FFBFFFFF0B59FB0029005938B890F0016001B0610D50B6924
:4054C000002B0DD1402100F0EBFA38603861002804D10C23029A01381360D8E040237B61002306AD6B6120336B761033AB7634002378002B03D1A31B049312D003E0252B5F
:40550000F9D00134F4E7A31B320039000298FFF76BFF431C00D1B4E06A69049B944663446B612378002B00D1ABE00122002352426A6002A95432521801342B60EB60AB6075
:405540001370AB65534E21780522300000F03CFA002807D00123801B83402A68013413432B60EFE72B68DA0604D55322202102A8121811701A0704D553222B2102A81218FC
:40558000117022782A2A03D0099B00200A210EE0059A111D12680591002A01DB099204E05242EA60022213432B6001340BE02278303A092A04D84B4301349B180120F6E7E0
:4055C000002800D0099323782E2B1ED163782A2B0AD1059B02341A1D1B680592002B01DA01235B42079310E000230A201A0001346B6021783039092904D842430134521816
:405600000123F6E7002B00D00792234E21780322300000F0D9F9002806D04023801B83402A68013413432B60217806221B48661C297600F0C9F9002812D0194B002B06D1E6
:405640000722059B073393430833059314E005AB00933A00134B2900029800E000BF07E005AB00933A000F4B2900029800F08AF80390039B013304D06B69039A9B186B6131
:4056800035E7BB890B985B0601D5012040421FB0F0BDC04662640000686400006C64000000000000E9530000F7B5170001938A680B6900900C00934200DA130022003B6015
:4056C00043321278002A01D001333B6023689B0602D53B6802333B60062523681D401ED0230043331B785A1E9341226892061CD53020E1184331087021005A1C453109781C
:40570000A2184332023311700FE022000123193201990098089EB047431C0ED00135E3683A689B1A9D42F0DBDAE72200019943320098089DA847431C02D10120404220E083
:4057400006232068E1683A6803400025042B03D18D1AEB43DB171D40A3682269934201DD9B1AED180027BD420AD0220001231A3201990098089EB047431CDED00137F2E77C
:405780000020FEBDF0B58BB006920A0043320793059004920A7E0C00109B6E2A00D1ABE011D8632A22D009D8002A00D1B5E0582A00D0C5E045310A70814A4FE0642A1DD0EA
:4057C000692A1BD0BCE0732A00D1AAE009D86F2A29D0702A00D0B3E0202209680A43226037E0752A1FD0782A33D0A9E00E001A684236111D196013683370A4E021681A6876
:40580000080606D4490604D5111D19600023D55E02E0111D19601568002D3BDA2D23049A6D42137036E021681A68080606D4490604D51568111D1960ADB202E0111D1960B6
:4058400015685F4B227E039308276F2A1DD00A271BE022007821453211705A4A19680392081D226818600D68100602D4500600D5ADB2D30702D520231A4322601027002D34
:4058800003D1202322689A4322602300002243331A7002E00A274A4B03936368A360002B09DB0422216891432160002D05D1049E002B11D07BE0002D79D0049E28003900FF
:4058C000FDF774FA039B013E5B5C280033703900FDF7E6F9051EF1D1082F09D12368DB0706D563682269934202DC3023013E3370049B9B1B23612BE009681A68080607D49F
:40590000490605D5111D19601368A28A1A8004E0111D1960136862691A600023049E236116E01A68111D1960166800216268300000F04AF8002801D0801B6060636803E0D6
:40594000260042363270012323610023049A1370079B09AA00932100069B0598FFF7A4FE431C02D10120404227E02369320006990598079DA847431CF4D0236800259B073E
:405980000FD4099BE068984217DA180015E022000123193206990598079EB047431CE1D00135E368099A9B1A9D42F0DBE9E72600039B42361B7833708EE70BB0F0BDC0461F
:4059C0007364000084640000C9B28218904204D003788B4202D00130F8E70020704710B5884202D98B18984201D3002305E09B1A013A08D3995C8154FAE7934203D0CC5C23
:405A0000C4540133F9E710BD70B50500002944D00C1F2368002B00DAE418280000F0D8F81E4A13681100002B02D16360146031E0A3420DD92268A018834203D118685B6844
:405A40008218226063600C6024E0A24203D813005A68002AF9D11E689819A0420BD12168711858181960824214D110685268411819605A600EE0A04202D90C232B6009E0AA
:405A800021686018824203D1106852684118216062605C60280000F09CF870BD88020020032370B5CD1C9D43083506000C2D01D20C2501E0002D01DBA94202D90C2333603A
:405AC00048E0300000F084F8234B1C681A002100002913D00B685B1B0DD40B2B02D90B60CC181EE08C4202D1636813601AE04B6863600C0016E00C004968E9E7174C2368B5
:405B0000002B03D1300000F051F820602900300000F04CF8431C18D00323C41C9C43A0420DD12560300000F054F8200007220B30231D9043C31A0ED05A42E2500BE0211ACD
:405B4000300000F033F8431CEBD10C233000336000F03FF8002070BD8802002084020020F8B506000C001500002904D11100FFF797FF040018E0002A03D1FFF745FF2C003A
:405B800012E000F027F885420ED929003000FFF787FF071E07D021002A00FFF7E9FB21003000FFF731FF3C002000F8BD002370B5064C050008002360FBF762FC431C03D10B
:405BC0002368002B00D02B6070BDC046EC030020704770470B1F1A68101F002A04DA891804390B68D01804387047000000000000000000000055AA00A211000036120000DB
:405C00000E120000A81100003612000000120000F2110000AE11000036120000A2110000B411000036120000361200003612000036120000361200003612000036120000B7
:405C4000361200001E1200002A12000036120000361200003612000036120000361200003612000036120000361200003612000036120000361200003612000036120000C8
:405C80000E120000A81100003612000000120000F2110000AE11000036120000A2110000B41100003612000036120000361200003612000036120000361200003612000037
:405CC000361200001E1200002A1200000D0A2A2A2A20526576656C69746520426174746572792053797374656D20434C49202A2A2A0D0A00547970652027682720666F72CF
:405D00002068656C700D0A3E20000000436F6D6D616E64733A0D0A00202068202D2048656C70202874686973206D656E75290D0A00000000202069202D20496E697469617B
:405D40006C697A6520636861726765722026206675656C2067617567650D0A00202062202D20426174746572792063686172676572207374617475730D0A0000202066209A
:405D80002D204675656C206761756765207374617475730D0A000000202061202D20416C6C20737461747573202863686172676572202B206675656C206761756765290D81
:405DC0000A000000202065202D20456E61626C65206368617267696E670D0A00202064202D2044697361626C65206368617267696E670D0A00000000202072202D205265B1
:405E0000616420636861726765722072656769737465727320286465627567290D0A0000202073202D205363616E204932432062757320286465627567290D0A000000009E
:405E40005945530D0A0000004E4F0D0A000000004E4F4E450D0A00003D3D3D2042617474657279204368617267657220284251323537333029203D3D3D0D0A002020537497
:405E800061747573205265673A203078253034580D0A00002020426174746572793A202020202575206D562C202564206D410D0A000000002020564255533A202020202087
:405EC00020202575206D560D0A000000202053797374656D3A20202020202575206D560D0A000000202041432050726573656E743A20000020204368617267696E673A20BF
:405F00002020000020204661756C74733A202020202000003D3D3D204675656C20476175676520284C54433239343429203D3D3D0D0A000020205374617475732052656715
:405F40003A203078253032580D0A00002020566F6C746167653A202020202575206D5620287261773A307825303458290D0A0000202043757272656E743A202020202564E5
:405F8000206D4120287261773A307825303458290D0A0000202054656D703A202020202020202564204320287261773A307825303458290D0A0000002020416363204368FB
:405FC000617267653A202575206D416820287261773A307825303458290D0A002020534F433A202020202020202025752025250D0A0000002020416C657274733A20202084
:406000002020000020204D66722049443A2020202020307825303458202865787065637420307830303430290D0A000020204465762049443A20202020203078253034589F
:40604000202865787065637420307830373733290D0A000020204368674F7074303A202020203078253034580D0A00002020436867437572723A2020202030782530345836
:4060800020282575206D41290D0A00002020436867566F6C743A2020202030782530345820282575206D56290D0A000020205374617475733A20202020203078253034588A
:4060C0000D0A000020205363616E6E696E6720307830302D307837462E2E2E0D0A00000020202020466F756E6420646576696365206174203078253032580000202842517A
:4061000032353733302043686172676572290D0A0000000020284C544332393434204675656C204761756765290D0A00202850434C4139353338204C61746368290D0A00C2
:4061400020205363616E20636F6D706C6574652E20466F756E64202575206465766963652873290D0A00000008200800496E697469616C697A696E6720636861726765725B
:406180002E2E2E0D0A000000202043686172676572204F4B0D0A0000202043686172676572204641494C45440D0A0000496E697469616C697A696E67206675656C206761FA
:4061C0007567652E2E2E0D0A0000000020204675656C206761756765204F4B0D0A00000020204675656C206761756765204641494C45440D0A0000004368617267696E6703
:4062000020454E41424C45440D0A00004368617267696E672044495341424C45440D0A0052656164696E672042513235373330207265676973746572732E2E2E0D0A0000A3
:406240005363616E6E696E6720493243206275732E2E2E0D0A000000556E6B6E6F776E20636F6D6D616E642E20547970652027682720666F722068656C700D0A0000000008
:406280003E20000000300F40000400400F400004EA01024807106B806F10C070DA80DC202A012F4046414B804E089A40A208AB80CAC0D0A0D230EA800704C001AB0400005C
:4062C00001330F4007400F400C410F4002420F4001430F4002040000020400000204000002040000020400000207060504000000030405060708090A0B0C0E0F10111213DF
:406300001415161718191B1C1D1E1F2021222325262728292A2B2E2F3031323334350000D6320000FA310000B832000090320000B832000084320000B832000090320000F0
:40634000FA310000FA31000084320000903200003C3300003C3300003C330000BE320000FA310000FA310000A43200008E320000A432000084320000A43200008E32000004
:40638000FA310000FA310000843200008E3200003C3300003C3300003C330000483300003436000092350000923500009035000026360000263600001C36000090350000BD
:4063C000263600001C36000026360000903500002C3600002C3600002C360000B6360000BC3D00008A3C0000903D0000803C0000903D00009A3D0000903D0000803C000047
:406400008A3C00008A3C00009A3D0000803C0000763C0000763C0000763C0000EC3F0000E8430000A8420000A8420000A6420000C0430000C0430000B2430000A642000032
:40644000C0430000B2430000C0430000A6420000C8430000C8430000C8430000C84500004300232D302B2000686C4C00656667454647003031323334353637383941424306
:40648000444546003031323334353637383961626364656600000000F8B5C046F8BC08BC9E46704775020000F9140000F8B5C046F8BC08BC9E4670474D020000D064000018
:4064C000C000002090000000A00200000000000000000000EC51803F0000803FF40160EAF0030020010000000000C05D80BB000030000000006CDC0204040400000000009E
:406500000000000000000000000000000000000000000000000000000000000060640000000000000000000000000000000000000000000000000000000000000000000097
:4065400000000000000000000000000000000000000000000000000000000000EC00002000000000000000000000000000000000000000000000000000000000000000000F
:4065800000000000000000000000000000000000000000000000000000000000000000000000000000000000000000000000000000000000000000000000000000000000DB
:4065C000000000000000000000000000000000000000000000000000000000000000000000000000000000000000000000000000000000000000000000000000000000009B
:40660000000000000000000000000000000000000000000000000000000000000000000000000000000000000000000000000000000000000000000000000000000000005A
:40664000000000000000000000000000000000000000000000000000000000000000000000000000000000000000000000000000000000000000000000000000000000001A
:0200000490303A
:0200000022924A
:0200000490402A
:200000000000000000000000000000000000000000000000000000000000000000000000E0
:0200000490501A
:0C000000000204A61193110104C734256E
:0200000490600A
:0100000001FE
:00000001FF